:100000000C94C56F0C94E46F0C94E46F0C94E46F43
:100010000C94E46F0C94E46F0C94E46F0C94E46F14
:100020000C94E46F0C94E46F0C94E46F0C94E46F04
:100030000C94E46F0C94E46F0C94E46F0C94E46FF4
:100040000C94E46F0C94E46F0C94E46F0C94E46FE4
:100050000C94E46F0C94E46F0C94E46F0C94E46FD4
:100060000C94E46F0C94E46F0C94E46F0C94E46FC4
:100070000C94E46F0C94E46F0C94E46F0C94E46FB4
:100080000C94E46F0C94E46F0C94E46F0829573FD0
:100090009F2D49CBA5310F76C73493F27E37D00D13
:1000A000013AB60B613D2AAAAB3F0000003F800039
:1000B000000000000102030405060708090A0B0CF2
:1000C0000D0E0F10111213000000010203040500B1
:1000D00000060708090A0B00000C0D0E0F10110096
:1000E0000012131415000001020304050607080995
:1000F0000A0B0C0D0E0F1000111213141516171801
:10010000191A1B0000000000000000000103030397
:1001100001020404040201030000050505050505AC
:100120000505060707070606070707060607050071
:1001300000020002010201020300020103030102A6
:1001400001030301010000000000000000000000A6
:10015000000000000000000000000000000000009F
:100160000000000000000008080888C87838000077
:100170000000000000000002020101000000000079
:100180000000000000000808C8F838C8F83800006F
:100190000000000000000201010201010000000057
:1001A00000000000000008F8F80000000000000057
:1001B000000000000000000103020202020202002F
:1001C00000000000000008F8F80808080800000017
:1001D0000000000000000001030202020202000011
:1001E00000000000000008F8F808F8F8080800000F
:1001F00000000000000000010302010302020200EF
:1002000000000000000000C8C84848487878000096
:1002100000000000000000010302020202020200CE
:1002200000000000000008F8F8080808F8F80000CE
:1002300000000000000000030302020203030000AC
:1002400000000000000010F0F0404048F8F8000006
:10025000000000000000000303020202030300008C
:10026000000000000010F0F040F0F048F8F8000046
:100270000000000000000303020303020303000068
:10028000000000000000000000C47CFC80000000B2
:100290000000000000000202010100000103020052
:1002A00000000000000000F878808078F80000006E
:1002B000000000000002030100030300010302002C
:1002C000000000000000E0F018080818F0E000004E
:1002D0000000000000000001030202030100000012
:1002E00000000000000008080888C87838000000F6
:1002F00000000000000002020101000103020000F2
:100300000000000000000888C8F8B8C8F8380000ED
:1003100000000000000203010203010001030200CB
:1003200000000000000010101494D4F4300000000D
:1003300000000000000002020101000103020000B1
:1003400000000000000028282828A8E878380000CD
:100350000000000000000202020101000000000095
:1003600000000000000008F8F8484848484800002D
:10037000000000000000000103020202020202006D
:1003800000000000000808F8F80808F8F80808005D
:100390000000000000020203030202030302020045
:1003A00000000000000008C8E82C2C2CE8C8080059
:1003B000000000000000000103020202030100002F
:1003C000000000000000000000000000000000002D
:1003D000000000000000000000000000000000001D
:1003E000000000000000000004040404040404FCF5
:1003F0007C00000000000000000000000000000081
:100400000000000000000000040404FC7C0404045C
:10041000FC7C000000000000000000000000000064
:1004200000000000000000043C7C40404040404090
:10043000404000000000000000000000000000003C
:1004400000000000000000043C7C44444444444458
:100450004400000000000000000000000000000058
:1004600000000000000000043C7C4444443C7C4408
:1004700044440000000000000000000000000000F4
:1004800000000000000000003474545454545454CC
:100490005C5C0000000000000000000000000000A4
:1004A00000000000000000047C7C44444444447C80
:1004B0007C000000000000000000000000000000C0
:1004C00000000000000000047C7C50505050547C20
:1004D0007C000000000000000000000000000000A0
:1004E00000000000000000047C7C50507C7C5050D8
:1004F0007C7C000000000000000000000000000004
:100500000000000000000080804060341C1C1020AF
:1005100060C080000000000000000000000000003B
:1005200000000000000080C0603C1CB0C0603C3C8B
:1005300060C080000000000000000000000000001B
:100540000000000000000000387C44444444447C27
:100550003800000000000000000000000000000063
:1005600000000000000000808444442424143C2C3B
:1005700044C08000000000000000000000000000F7
:10058000000000000000004464341C1C64641C1C57
:100590003464400000000000000000000000000083
:1005A00000000000000000808848486A3A1A3A2893
:1005B00048C88000000000000000000000000000AB
:1005C000000000000000000024242424242424240B
:1005D000FCFC000000000000000000000000000023
:1005E00001000000000000043C7C54545454545456
:1005F0005454000000000000000000000000000053
:10060000000000000000000044447C7C44447C7CEA
:100610004444000000000000000000000000000052
:10062000000000000000000004347C4E4E4E4E7C62
:100630003404000000000000000000000000000082
:1006400000000000000000000000000000000000AA
:10065000000000000000000000000000000000009A
:10066000000000000000000004040404040404FC72
:100670007C000000000000000000000000000000FE
:1006800000000000000000000404047C3C0404049A
:100690007C3C0000000000000000000000000000A2
:1006A00000000000000000043C7C4040404040400E
:1006B00040400000000000000000000000000000BA
:1006C00000000000000000043C7C444444444444D6
:1006D00044000000000000000000000000000000D6
:1006E00000000000000000043C7C4444443C7C4486
:1006F0004444000000000000000000000000000072
:100700000000000000000000347454545454545449
:100710005C5C000000000000000000000000000021
:1007200000000000000000047C7C44444444447CFD
:100730007C0000000000000000000000000000003D
:1007400000000000000000047C7C50505050547C9D
:100750007C0000000000000000000000000000001D
:1007600000000000000000047C7C50507C7C505055
:100770007C7C000000000000000000000000000081
:1007800000000000000000404020301A0E0E08104B
:100790003060400000000000000000000000000089
:1007A0000000000000004060301E0E1860180E1E91
:1007B0003060400000000000000000000000000069
:1007C0000000000000000000001C3E222222223E09
:1007D0001C000000000000000000000000000000FD
:1007E000000000000000004042222212120A1E16E1
:1007F0002260400000000000000000000000000037
:10080000000000000000004464341C1C64641C1CD4
:100810003464400000000000000000000000000000
:100820000000000000000040442424361E0E1E1468
:1008300024644000000000000000000000000000F0
:100840000000000000000000242424242424242488
:10085000FC7C000000000000000000000000000020
:1008600000000000000000043C7C545454545454D4
:1008700054540000000000000000000000000000D0
:10088000000000000000000044447C7C44447C7C68
:1008900044440000000000000000000000000000D0
:1008A000000000000000000004347C4E4E4E4E7CE0
:1008B0003404000000000000000000000000000000
:1008C0000000000000000000000000000000000028
:1008D0000000000000000000000000000000000018
:1008E000000000000000000404040404FC7C00007C
:1008F00000000000000000000000000000000000F8
:10090000000000000000000404FC7C0404FC7C00E7
:1009100000000000000000000000000000000000D7
:10092000000000000000043C7C404040404040008B
:1009300000000000000000000000000000000000B7
:10094000000000000000043C7C4444444444000097
:100950000000000000000000000000000000000097
:10096000000000000000043C7C44443C7C44440003
:100970000000000000000000000000000000000077
:100980000000000000000034745454545C5C00000B
:100990000000000000000000000000000000000057
:1009A000000000000000047C7C4444447C7C000087
:1009B0000000000000000000000000000000000037
:1009C000000000000000047C7C5050547C7C00003F
:1009D0000000000000000000000000000000000017
:1009E000000000000000047C7C507C7C507C7C007B
:1009F00000000000000000000000000000000000F7
:100A0000000000000000804060341C1C2060C0809A
:100A100000000000000000000000000000000000D6
:100A200000000000000080C07C3CE0E03C7CC08016
:100A300000000000000000000000000000000000B6
:100A400000000000000000387C4444447C38000072
:100A50000000000000000000000000000000000096
:100A600000000000000000444424341C2C644000BA
:100A70000000000000000000000000000000000076
:100A80000000000000004064343C6C343C6C4400C6
:100A90000000000000000000000000000000000056
:100AA0000000000000000088884C6C3C58C88000A2
:100AB0000000000000000000000000000000000036
:100AC00000000000000000141414141414FC7C0036
:100AD0000000000000000000000000000000000016
:100AE000000000000000043C7C54545454540000A6
:100AF00000000000000000000000000000000000F6
:100B000000000000000000447C7C44447C7C4400E5
:100B100000000000000000000000000000000000D5
:100B200000000000000004347C4E4E4E7C34040073
:100B300000000000000000000000000000000000B5
:100B400000000000000000000000000000000000A5
:100B50000000000000000000000000000000000095
:100B6000000000000000000404040404FC7C0000F9
:100B70000000000000000000000000000000000075
:100B800000000000000004047C3C04047C3C0000E5
:100B90000000000000000000000000000000000055
:100BA000000000000000043C7C4040404040000049
:100BB0000000000000000000000000000000000035
:100BC000000000000000043C7C4444444444000015
:100BD0000000000000000000000000000000000015
:100BE000000000000000043C7C44443C7C44440081
:100BF00000000000000000000000000000000000F5
:100C00000000000000000034745454545C5C000088
:100C100000000000000000000000000000000000D4
:100C2000000000000000047C7C4444447C7C000004
:100C300000000000000000000000000000000000B4
:100C4000000000000000047C7C5050547C7C0000BC
:100C50000000000000000000000000000000000094
:100C6000000000000000047C7C507C7C507C7C00F8
:100C70000000000000000000000000000000000074
:100C80000000000000004020301A0E0E10306000FE
:100C90000000000000000000000000000000000054
:100CA00000000000000040603C1C70701C3C604074
:100CB0000000000000000000000000000000000034
:100CC00000000000000000387C4444447C380000F0
:100CD0000000000000000000000000000000000014
:100CE00000000000000040442424141C2C64400038
:100CF00000000000000000000000000000000000F4
:100D00000000000000004464343C6C743C6C4400FF
:100D100000000000000000000000000000000000D3
:100D200000000000000044442426161E2C644000ED
:100D300000000000000000000000000000000000B3
:100D4000000000000000001414141414FC7C0000C7
:100D50000000000000000000000000000000000093
:100D6000000000000000043C7C5454545454000023
:100D70000000000000000000000000000000000073
:100D8000000000000000447C7C44447C7C44000063
:100D90000000000000000000000000000000000053
:100DA00000000000000004347C4E4E4E7C340400F1
:100DB0000000000000000000000000000000000033
:100DC0000000000000000000000000000000000023
:100DD0000000000000000000000000000000000013
:100DE00000000000000000040484C4643C1C0000F7
:100DF00000000000000000010100000000000000F1
:100E00000000000000000484E47C9CE47C1C0000E2
:100E100000000000000001000001000000000000D0
:100E2000000000000000047CFC80808080800000C6
:100E300000000000000000000000000000000000B2
:100E4000000000000000047CFC8484848480000096
:100E50000000000000000000000000000000000092
:100E6000000000000000047CFC847CFC8484800082
:100E70000000000000000000000000000000000072
:100E800000000000000000E4E42424243C3C0000B6
:100E9000000000000000000001010101010101004B
:100EA00000000000000004FCFC848484FCFC0000C2
:100EB0000000000000000000000000000000000032
:100EC00000000000000004FCFC909094FCFC00007A
:100ED0000000000000000000000000000000000012
:100EE000000000000004FCFC90FCFC90FCFC0000F6
:100EF00000000000000000000000000000000000F2
:100F0000000000000000000080E43C7CC080000085
:100F100000000000000001010000000000010100CD
:100F200000000000000080C07C1CE01C7CC0800031
:100F300000000000000000000000000000000000B1
:100F40000000000000000078FC848484FC7800002D
:100F50000000000000000000000000000000000091
:100F60000000000000000084844464345CCC8000F5
:100F70000000000000000000000000000000000071
:100F800000000000000084C464FCDC64FC9C0000E1
:100F9000000000000000000001010000000101004D
:100FA00000000000000008088CCC6CF898000000DD
:100FB000000000000000010100000000010100002D
:100FC00000000000000000141494D4743C1C0000C5
:100FD000000000000000000101000000000000000F
:100FE00000000000000004FCFC2424242400000075
:100FF00000000000000000000101010101010000EB
:1010000000000000000084FCFC8484FCFC8484005C
:1010100000000000000000000000000000000000D0
:101020000000000000000474FC8E8EFC74040000BC
:1010300000000000000000000000000000000000B0
:1010400000000000000000000000000000000000A0
:101050000000000000000000000000000000000090
:101060000000000000000000040404040404040460
:101070007C3C0000000000000000000000000000B8
:10108000000000000000000404047C3C040404048C
:101090007C3C000000000000000000000000000098
:1010A00000000000000000041C3C20202020202024
:1010B00020200000000000000000000000000000F0
:1010C00000000000000000041C3C242424242424EC
:1010D00024240000000000000000000000000000C8
:1010E00000000000000000041C3C2424241C3C24BC
:1010F00024240000000000000000000000000000A8
:10110000000000000000000034745454545454543F
:101110005C5C000000000000000000000000000017
:101120000000000000000000043C3C24242424248F
:101130003C3C000000000000000000000000000037
:1011400000000000000000047C7C505050505054BF
:101150007C7C000000000000000000000000000097
:1011600000000000000000047C7C50507C7C50504B
:101170007C7C000000000000000000000000000077
:1011800000000000000000404020301A0E0E081041
:10119000306040000000000000000000000000007F
:1011A0000000000000004060301E0E5870301E1E0F
:1011B000306040000000000000000000000000005F
:1011C000000000000000000000387C444444447CDF
:1011D00038000000000000000000000000000000D7
:1011E00000000000000000004444442424143C2C6F
:1011F000444000000000000000000000000000006B
:10120000000000000000004464341C1C64641C1CCA
:1012100034644000000000000000000000000000F6
:101220000000000000000000444424341E0E1E3460
:101230002444400000000000000000000000000006
:1012400000000000000000001414141414141414FE
:101250007C3C0000000000000000000000000000D6
:1012600000000000000000043C7C545454545454CA
:1012700054540000000000000000000000000000C6
:10128000000000000000000044447C7C44447C7C5E
:1012900044440000000000000000000000000000C6
:1012A000000000000000000004347C4E4E4E4E7CD6
:1012B00034040000000000000000000000000000F6
:1012C000000000000000000000000000000000001E
:1012D000000000000000000000000000000000000E
:1012E0000000000000000004040404047C3C000032
:1012F00000000000000000000000000000000000EE
:1013000000000000000004047C3C04047C3C00005D
:1013100000000000000000000000000000000000CD
:10132000000000000000043C7C40404040400000C1
:1013300000000000000000000000000000000000AD
:10134000000000000000043C7C444444444400008D
:10135000000000000000000000000000000000008D
:10136000000000000000043C7C44443C7C444400F9
:10137000000000000000000000000000000000006D
:101380000000000000000034745454545C5C000001
:10139000000000000000000000000000000000004D
:1013A000000000000000047C7C4444447C7C00007D
:1013B000000000000000000000000000000000002D
:1013C000000000000000047C7C5050547C7C000035
:1013D000000000000000000000000000000000000D
:1013E000000000000000047C7C507C7C507C7C0071
:1013F00000000000000000000000000000000000ED
:101400000000000000004020301A0E0E1030600076
:1014100000000000000000000000000000000000CC
:1014200000000000000040603C1C70701C3C6040EC
:1014300000000000000000000000000000000000AC
:1014400000000000000000387C4444447C38000068
:10145000000000000000000000000000000000008C
:1014600000000000000040442424141C2C644000B0
:10147000000000000000000000000000000000006C
:101480000000000000004464343C6C343C6C4400B8
:10149000000000000000000000000000000000004C
:1014A00000000000000044442426161E2C64400066
:1014B000000000000000000000000000000000002C
:1014C000000000000000001414141414FC7C000040
:1014D000000000000000000000000000000000000C
:1014E000000000000000043C7C545454545400009C
:1014F00000000000000000000000000000000000EC
:10150000000000000000447C7C44447C7C440000DB
:1015100000000000000000000000000000000000CB
:1015200000000000000004347C4E4E4E7C34040069
:1015300000000000000000000000000000000000AB
:10154000000000000000000000000000000000009B
:10155000000000000000000000000000000000008B
:101560000000000000000000000000000000000279
:10157000FEFE4040400000000000000000000000AF
:101580007F3F00000000000000000000000004FC9D
:10159000FC42FEFE00000000000000000000003FD2
:1015A0001F007F3F0000000000000000000000025C
:1015B000FEFE2020200000000000000000000000CF
:1015C0007F3F01010100000000000000000004FC5A
:1015D000FC22FEFE00000000000000000000003FB2
:1015E0001F017F3F0000000000000000000040409D
:1015F00042FEFE00000000000000000000000000AD
:10160000007F3F000000000000000000004044FC9C
:10161000FC02FEFE00000000000000000000003F91
:101620001F007F3F00000000000000000000A0A09D
:10163000A2FEFE000000000000000000000000000C
:10164000007F3F000000000000000000A0A0A4FCFC
:10165000FC02FEFE00000000000000000000003F51
:101660001F007F3F0000000000000000000000009D
:101670000000000000000808080808080F0F08080C
:101680000808080800000000000000000000000238
:10169000FEFE8080800004040407070404040400A4
:1016A0007F3F00000000000000000000000004FC7C
:1016B000FC42FEFE00000404070704040404003F8B
:1016C0001F007F3F0000000000000000000000003D
:1016D00002FEFE00000004040407070404040404DE
:1016E000007F3F000000000000000000000000003C
:1016F0000000000000000808080F0F0808090F0F7D
:1017000008080808000000000000000000000000B9
:101710000000000000000101010101017F3F010103
:1017200001010101000000000000000000000000B5
:1017300002FEFE000000010101013F1F010105053D
:10174000047F3F000000000000000000000004FCD7
:10175000FC02FEFE00000101013F1F010505043FE0
:101760001F007F3F0000000000000000000000009C
:1017700002FEFE000000010101013F1F0101010105
:10178000007F3F000000000000000000000000009B
:10179000000000000000010101017F3F01017F3FC7
:1017A0000101010100000000000000000000000035
:1017B00000000000000008080808080808080808D9
:1017C00008080808000000000000000000000000F9
:1017D00002FEFE00000004040404040404020202E9
:1017E000007F3F000000000000000000000000003B
:1017F00002FEFE00000000000000000000000000EB
:10180000007F3F000000000000000000000000001A
:1018100000000000000000000000000000000000C8
:1018200000000000000000000000000000000002B6
:10183000FEFE4040400000000000000000000000EC
:101840007F3F00000000000000000000000004FCDA
:10185000FC42FEFE00000000000000000000003F0F
:101860001F007F3F00000000000000000000000299
:10187000FEFE20202000000000000000000000000C
:101880007F3F01010100000000000000000004FC97
:10189000FC22FEFE00000000000000000000003FEF
:1018A0001F017F3F000000000000000000004040DA
:1018B00042FEFE00000000000000000000000000EA
:1018C000007F3F000000000000000000000044FC1A
:1018D000FC02FEFE00000000000000000000003FCF
:1018E0001F007F3F00000000000000000000A0A0DB
:1018F000A2FEFE000000000000000000000000004A
:10190000007F3F0000000000000000000000A4FC79
:10191000FC02FEFE00000000000000000000003F8E
:101920001F007F3F000000000000000000000000DA
:101930000000000000000808080808080F0F080849
:101940000808080800000000000000000000000275
:10195000FEFE8080800004040407070404040400E1
:101960007F3F00000000000000000000000004FCB9
:10197000FC42FEFE00000404040707040404003FC8
:101980001F007F3F0000000000000000000000007A
:1019900002FEFE000000040404070704040404041B
:1019A000007F3F0000000000000000000000000079
:1019B000000000000000080808080F0F08080F0FBB
:1019C00008080808000000000000000000000000F7
:1019D0000000000000000101010101017F3F010141
:1019E00001010101000000000000000000000000F3
:1019F00002FEFE000000010101013F1F010105057B
:101A0000047F3F000000000000000000000004FC14
:101A1000FC02FEFE00000101011F0F010505043F4D
:101A20001F007F3F000000000000000000000000D9
:101A300002FEFE000000010101013F1F0101010142
:101A4000007F3F00000000000000000000000000D8
:101A5000000000000000010101017F3F01017F3F04
:101A60000101010100000000000000000000000072
:101A70000000000000000808080808080808080816
:101A80000808080800000000000000000000000036
:101A900002FEFE0000000404040404040402020226
:101AA000007F3F0000000000000000000000000078
:101AB00002FEFE0000000000000000000000000028
:101AC000007F3F0000000000000000000000000058
:101AD0000000000000000000000000000000000006
:101AE00000000000000000000000000000000002F4
:101AF000FEFE20202000000000000000000000008A
:101B0000030100000000000000000000000004FCD1
:101B1000FC22FEFE000000000000000000000003A8
:101B200001000301000000000000000000000002AE
:101B3000FEFE5050500000000000000000000000B9
:101B4000030100000000000000000000000004FC91
:101B5000FC52FEFE00000000000000000000000338
:101B60000100030100000000000000000020202010
:101B700022FEFE0000000000000000000000000047
:101B8000000301000000000000000000002024FC11
:101B9000FC02FEFE00000000000000000000000348
:101BA0000100030100000000000000000000505090
:101BB00052FEFE00000000000000000000000000D7
:101BC000000301000000000000000000005054FC71
:101BD000FC02FEFE00000000000000000000000308
:101BE000010003010000000000000000C0C0000070
:101BF00000000000000001010101010101010101DB
:101C0000010101010000000000C0C000000000024E
:101C1000FEFE20202000010101010101010101005F
:101C20000301000000000000C0C00000000004FC30
:101C3000FC22FEFE00000101010101010101000181
:101C4000000003010000000000C0C0000000000010
:101C500002FEFE000000010101010101010101017C
:101C6000000301000000000000C0C0000000C0C070
:101C7000000000000000010101010101010101015A
:101C80000101010100008080808080808080808050
:101C9000808080800000000000000000070300003A
:101CA00000000000000040404040C0C040404040B4
:101CB00004FCFC000000000000000703000001011C
:101CC000010703000000000000000000004044FC89
:101CD000FC02FEFE000001010107030101010007F3
:101CE0000300070300000080808080808080808067
:101CF0000002FEFE000000000000030300000000E0
:101D000000000301000000000000000000000000CF
:101D100000000000000001010101070701010707A1
:101D200001010101000000000000000000000000AF
:101D30000000000000000101010101010101010199
:101D4000010101010000000000000000000000008F
:101D500002FEFE000000010101010101010101017B
:101D6000000301000000000000000000000000006F
:101D700002FEFE0000000000000000000000000065
:101D8000000301000000000000000000000000004F
:101D90000000000000000000000000000000000043
:101DA0000000000000000000000000000000000231
:101DB000FEFE2020200000000000000000000000C7
:101DC000030100000000000000000000000004FC0F
:101DD000FC22FEFE000000000000000000000003E6
:101DE00001000301000000000000000000000002EC
:101DF000FEFE5050500000000000000000000000F7
:101E0000030100000000000000000000000004FCCE
:101E1000FC52FEFE00000000000000000000000375
:101E2000010003010000000000000000000020206D
:101E300022FEFE0000000000000000000000000084
:101E4000000301000000000000000000000024FC6E
:101E5000FC02FEFE00000000000000000000000385
:101E600001000301000000000000000000005050CD
:101E700052FEFE0000000000000000000000000014
:101E8000000301000000000000000000000054FCFE
:101E9000FC02FEFE00000000000000000000000345
:101EA000010003010000000000000000C0C00000AD
:101EB0000000000000000101010101010101010118
:101EC000010101010000000000C0C000000000028C
:101ED000FEFE20202000010101010101010101009D
:101EE000030100000000000000C0C000000004FC6E
:101EF000FC22FEFE000001010101010101010001BF
:101F0000000003010000000000C0C000000000004D
:101F100002FEFE00000001010101010101010101B9
:101F200000030100000000000000C0C00000C0C0AD
:101F30000000000000000101010101010101010197
:101F4000010101010000000000000000000000008D
:101F5000000000000000010101010101070701016B
:101F600001010101000000808080808080808080ED
:101F70000002FEFE0000000000000303000000005D
:101F800001010303000080808080808080A024FC09
:101F9000FC02FEFE00000000000301000000000340
:101FA00001000301000000808080808080808080AC
:101FB0000002FEFE0000000000000303000000001D
:101FC000000003010000000000000000000000000D
:101FD00000000000000001010101070701010707DF
:101FE00001010101000000000000000000000000ED
:101FF00000000000000001010101010101010101D7
:1020000001010101000000000000000000000000CC
:1020100002FEFE00000001010101010101010101B8
:1020200000030100000000000000000000000000AC
:1020300002FEFE00000000000000000000000000A2
:10204000000301000000000000000000000000008C
:102050000000000000000000000000000000000080
:102060000000000000000000000000000000000070
:102070000000000000000000000404040404040444
:102080007C3C000000000000000000000000000098
:1020900000000000000000000404047C3C04040470
:1020A0007C3C000000000000000000000000000078
:1020B00000000000000000000404047C3C40603C80
:1020C0001C70600000000000000000000000000024
:1020D00000000000000000000000043C7C40404084
:1020E0004040400000000000000000000000000030
:1020F0000000000000000000043C7C404044643CC0
:102100003C644400000000000000000000000000EB
:102110000000000000000000043C7C404028785C87
:102120005C782800000000000000000000000000B3
:10213000000000000000000000043C7C44444444D3
:102140004444000000000000000000000000000007
:102150000000000000000000003474545454545433
:102160005C5C0000000000000000000000000000B7
:1021700000000000000000003474545C5C000404A3
:102180007C3C000000000000000000000000000097
:1021900000000000000000003474545C5C007C7C93
:1021A000447C7C00000000000000000000000000F3
:1021B00000000000000000003474545C5C007C7C73
:1021C000507C7C00000000000000000000000000C7
:1021D0000000000000000000003474545C5C0060EB
:1021E0003C3C6040000000000000000000000000D7
:1021F00000000000000000003474545C5C007C7C33
:1022000054545400000000000000000000000000D2
:1022100000000000000000003474545C18447C7C12
:10222000447C7C440000000000000000000000002E
:1022300000000000000000003474545C5C0028784A
:102240005C5C782800000000000000000000000036
:10225000000000000000000000047C7C4444444472
:102260007C7C000000000000000000000000000076
:10227000000000000000000000047C7C505050541E
:102280007C7C000000000000000000000000000056
:102290000000000000000000007C7C507C7C40605E
:1022A0003C3C6060000000000000000000000000F6
:1022B000000000000000000000404020301C0C1016
:1022C000306040000000000000000000000000003E
:1022D00000000000000000004060301C5C70301CFA
:1022E0001C30604000000000000000000000000002
:1022F00000000000000000000000387C444444441A
:102300007C38000000000000000000000000000019
:10231000000000000000000000444424341C1C3471
:102320002444440000000000000000000000000001
:10233000000000000000000000484828381C1C383D
:1023400028484800000000000000000000000000D5
:102350000000000000000000000014141414141405
:102360007C3C0000000000000000000000000000B5
:10237000000000000000000000043C7C5454545451
:1023800054540000000000000000000000000000A5
:1023900000000000000000000044447C7C44447CB9
:1023A0007C44440000000000000000000000000029
:1023B0000000000000000000000828785C5C5C5C05
:1023C0007828080000000000000000000000000065
:1023D00000000000000000000000000000000000FD
:1023E00000000000000000000000000000000000ED
:1023F00000000000000000000000040404040404C5
:10240000047C3C0000000000000000000000000010
:102410000000000000000000000404047C3C0404F0
:10242000047C3C00000000000000000000000000F0
:102430000000000000000000000404047C3C406038
:102440003C1C706000000000000000000000000064
:1024500000000000000000000000043C7C40404000
:1024600040404000000000000000000000000000AC
:10247000000000000000000000043C7C4040446478
:102480003C3C64440000000000000000000000002C
:10249000000000000000000000043C7C4040287860
:1024A0005C5C7828000000000000000000000000D4
:1024B00000000000000000000000043C7C44444494
:1024C0004444440000000000000000000000000040
:1024D0000000000000000000000034745454545404
:1024E000545C5C00000000000000000000000000E0
:1024F0000000000000000000003474545C5C000424
:10250000047C3C000000000000000000000000000F
:1025100000000000000000003474545C5C007C7C0F
:10252000447C7C000000000000000000000000006F
:1025300000000000000000003474545C5C007C7CEF
:10254000507C7C0000000000000000000000000043
:102550000000000000000000003474545C5C006067
:102560003C3C604000000000000000000000000053
:1025700000000000000000003474545C5C007C7CAF
:10258000545454000000000000000000000000004F
:1025900000000000000000003474545C18447C7C8F
:1025A000447C7C44000000000000000000000000AB
:1025B00000000000000000003474545C5C002878C7
:1025C0005C5C7828000000000000000000000000B3
:1025D00000000000000000000000047C7C44444433
:1025E000447C7C00000000000000000000000000AF
:1025F00000000000000000000000047C7C505050EF
:10260000547C7C000000000000000000000000007E
:102610000000000000000000007C7C507C7C4060DA
:102620003C3C606000000000000000000000000072
:10263000000000000000000000404020301C0C1092
:1026400030604000000000000000000000000000BA
:102650000000000000000000004060301C5C703092
:102660001C1C306040000000000000000000000062
:102670000000000000000000000000387C444444DA
:10268000447C380000000000000000000000000052
:10269000000000000000000000444424341C1C34EE
:1026A000244444000000000000000000000000007E
:1026B000000000000000000000484828381C1C38BA
:1026C0002848480000000000000000000000000052
:1026D0000000000000000000000000141414141496
:1026E000147C3C000000000000000000000000001E
:1026F00000000000000000000000043C7C54545422
:1027000054545400000000000000000000000000CD
:1027100000000000000000000044447C7C44447C35
:102720007C444400000000000000000000000000A5
:10273000000000000000000000000828785C5C5CDD
:102740005C78280800000000000000000000000085
:102750000000000000000000000000000000000079
:102760000000000000000000000000000000000069
:102770000000000000000000000004040404040441
:1027800004047C3C00000000000000000000000089
:10279000000000000000000000040404047C3C046D
:1027A00004047C3C00000000000000000000000069
:1027B000000000000000000000040404047C3C4011
:1027C000603C1C7060000000000000000000000081
:1027D00000000000000000000000043C7C4040407D
:1027E00040404040000000000000000000000000E9
:1027F0000000000000000000043C7C4040004464F5
:102800003C3C6444000000000000000000000000A8
:102810000000000000000000043C7C40404028789C
:102820005C5C782800000000000000000000000050
:1028300000000000000000000000043C7C44444410
:1028400044444400000000000000000000000000BC
:1028500000000000000000000000003474545454D4
:1028600054545C5C00000000000000000000000008
:10287000000000000000000000003474545C5C00A4
:1028800004047C3C00000000000000000000000088
:102890000000000000000000003474545C5C007C08
:1028A0007C447C7C00000000000000000000000070
:1028B0000000000000000000003474545C5C007CE8
:1028C0007C507C7C00000000000000000000000044
:1028D000000000000000000000003474545C5C0044
:1028E000603C3C6040000000000000000000000070
:1028F0000000000000000000003474545C5C007CA8
:102900007C5454540000000000000000000000004F
:1029100000000000000000003474545C18447C7C0B
:10292000447C7C4400000000000000000000000027
:1029300000000000000000003474545C5C00287843
:102940005C5C78280000000000000000000000002F
:1029500000000000000000000000047C7C444444AF
:1029600044447C7C000000000000000000000000E7
:1029700000000000000000000000047C7C5050506B
:1029800050547C7C000000000000000000000000AB
:102990000000000000000000007C7C507C7C406057
:1029A0003C3C6060000000000000000000000000EF
:1029B00000000000000000000000404020301C0C1F
:1029C0001030604000000000000000000000000027
:1029D0000000000000000000004060301C5C70300F
:1029E0001C1C3060400000000000000000000000DF
:1029F000000000000000000000000000387C44449B
:102A000044447C380000000000000000000000008A
:102A100000000000000000000000444424341C1C9E
:102A200034244444000000000000000000000000C6
:102A300000000000000000000000484828381C1C6E
:102A40003828484800000000000000000000000096
:102A50000000000000000000000000141414141412
:102A600014147C3C00000000000000000000000086
:102A70000000000000000000000000043C7C5454F2
:102A800054545454000000000000000000000000F6
:102A90000000000000000000000044447C7C44442E
:102AA0007C7C4444000000000000000000000000A6
:102AB000000000000000000000000828785C5C5C5A
:102AC0005C78280800000000000000000000000002
:102AD00000000000000000000000000000000000F6
:102AE00000000000000000000000000000000000E6
:102AF00000000000000000000404040404040404B6
:102B00007C3C00000000000000000000000000000D
:102B1000000000000000000404047C3C00040404E5
:102B20007C3C0000000000000000000000000000ED
:102B300000000000000000000404047C3C40603CF5
:102B40001C70600000000000000000000000000099
:102B500000000000000000043C7C40404040404039
:102B600040400000000000000000000000000000E5
:102B700000000000000000043C7C40400044643C35
:102B80003C64440000000000000000000000000061
:102B900000000000000000043C7C40404028785CBD
:102BA0005C78280000000000000000000000000029
:102BB00000000000000000083878484848484848AD
:102BC0004848000000000000000000000000000075
:102BD0000000000000000000347454545454545455
:102BE0005C5C00000000000000000000000000002D
:102BF00000000000000000003474545C5C00040419
:102C0000047C3C0000000000000000000000000008
:102C1000000000000000003474545C5C007C7C44C4
:102C2000447C7C0000000000000000000000000068
:102C300000000000000000003474545C5C007C7CE8
:102C4000507C7C000000000000000000000000003C
:102C500000000000000000003474545C5C00406020
:102C60003C3C60400000000000000000000000004C
:102C700000000000000000003474545C5C007C7CA8
:102C80005454540000000000000000000000000048
:102C900000000000000000003474545C18447C7C88
:102CA000447C7C44000000000000000000000000A4
:102CB000000000000000003474545C5C0028785C64
:102CC0005C78280000000000000000000000000008
:102CD0000000000000000000047C7C4444444444A4
:102CE0007C7C0000000000000000000000000000EC
:102CF00000000000000000047C7C505050505054F4
:102D00007C7C0000000000000000000000000000CB
:102D100000000000000000007C7C507C7C40603C97
:102D20003C606000000000000000000000000000A7
:102D30000000000000000000404020301C0C10305B
:102D400060400000000000000000000000000000E3
:102D50000000000000004060301C1C306060301C2F
:102D60001C30604000000000000000000000000077
:102D7000000000000000000000387C444444447C13
:102D8000380000000000000000000000000000000B
:102D90000000000000000000444424341C1C3424C3
:102DA000444400000000000000000000000000009B
:102DB0000000000000000000484828381C1C38288B
:102DC0004848000000000000000000000000000073
:102DD0000000000000000000141414141414141453
:102DE0007C3C00000000000000000000000000002B
:102DF0000000000000000000043C7C545454545473
:102E0000545400000000000000000000000000001A
:102E1000000000000000000044447C7C44447C7CB2
:102E2000444400000000000000000000000000001A
:102E300000000000000000000828785C5C5C5C7802
:102E40002808000000886188628865886888698829
:102E50006A886B88718873887488758876887788A3
:102E6000788879887B887C887D8881888288858835
:102E7000898891889388958896889788A188A28860
:102E8000A588A988B588B788C188C588C988E18818
:102E9000E288E588E888E988EB88F188F388F58896
:102EA000F688F788F888FB88FC88FD894189458980
:102EB0004989518953895589568957896189628918
:102EC0006389658968896989718973897589768952
:102ED00077897B8981898589898993899589A18960
:102EE000A289A589A889A989AB89AD89B089B18949
:102EF000B389B589B789B889C189C289C589C989A2
:102F0000CB89D189D389D589D789E189E589E989AF
:102F1000F389F689F78A418A428A458A498A518A21
:102F2000538A558A578A618A658A698A738A758A3B
:102F3000818A828A858A888A898A8A8A8B8A908A03
:102F4000918A938A958A978A988AA18AA28AA58A61
:102F5000A98AB68AB78AC18AD58AE18AE28AE58ACD
:102F6000E98AF18AF38AF58B418B458B498B618B1A
:102F7000628B658B688B698B6A8B718B738B758B9E
:102F8000778B818BA18BA28BA58BA88BA98BAB8B0D
:102F9000B18BB38BB58BB78BB88BBC8C618C628CCF
:102FA000638C658C698C6B8C718C738C758C768C56
:102FB000778C7B8C818C828C858C898C918C938C8A
:102FC000958C968C978CA18CA28CA98CE18CE28C30
:102FD000E38CE58CE98CF18CF38CF58CF68CF78D19
:102FE000418D428D458D518D558D578D618D658DEE
:102FF000698D758D768D7B8D818DA18DA28DA58D31
:10300000A78DA98DB18DB38DB58DB78DB88DB98DC7
:10301000C18DC28DC98DD68DD78DE18DE28DF78E94
:10302000418E458E498E518E538E578E618E818E84
:10303000828E858E898E908E918E938E958E978EB0
:10304000988EA18EA98EB68EB78EC18EC28EC58E79
:10305000C98ED18ED38ED68EE18EE58EE98EF18E1D
:10306000F38F418F618F628F658F678F698F6B8F51
:10307000708F718F738F758F778F7B8FA18FA28FDA
:10308000A58FA98FB18FB38FB58FB79061906290E4
:1030900063906590689069906A906B90719073905E
:1030A000759076907790789079907B907D908190D4
:1030B000829085908990919093909590969097901A
:1030C000A190A290A590A990B190B790E190E290C4
:1030D000E490E590E990EB90EC90F190F390F5900E
:1030E000F690F790FD91419142914591499151910E
:1030F0005391559156915791619162916591699162
:1031000071917391769177917A9181918591A19145
:10311000A291A591A991AB91B191B391B591B791BC
:10312000BC91BD91C191C591C991D69241924592F0
:10313000499251925392559261926292659269922C
:1031400073927592779281928292859288928992F7
:103150009192939295929792A192B692C192E19296
:10316000E592E992F192F3934193429349935193FB
:103170005393579361936293659369936A936B93A7
:10318000719373937593779378937C9381938593DD
:103190008993A193A293A593A993AB93B193B3936E
:1031A000B593B793BC946194629463946594689466
:1031B00069946A946B946C947094719473947594FC
:1031C00076947794789479947D948194829485947C
:1031D000899491949394959496949794A194E1945E
:1031E000E294E394E594E894E994EB94EC94F194FC
:1031F000F394F594F794F994FC954195429545958F
:103200004995519553955595569557956195659561
:1032100069957695779581958595A195A295A595C2
:10322000A895A995AB95AD95B195B395B595B7957D
:10323000B995BB95C195C595C995E195F696419609
:1032400045964996519653965596619681968296E3
:10325000859689969196939695969796A196B69609
:10326000C196D796E196E596E996F396F596F79787
:1032700041974597499751975797619762976597F7
:10328000689769976B9771977397759777978197F9
:10329000A197A297A597A897A997B197B397B59724
:1032A000B697B797B8986198629865986998719839
:1032B00073987598769877987D9881988298859874
:1032C000899891989398959896989798E198E2980C
:1032D000E598E998EB98EC98F198F398F598F698BA
:1032E000F798FD994199429945994999519953996E
:1032F00055995699579961997699A199A299A59945
:10330000A999B799C199C999E19A419A459A819A1F
:10331000829A859A899A909A919A979AC19AE19AF3
:10332000E59AE99AF19AF39AF79B619B629B659BF8
:10333000689B699B719B739B759B819B859B899BFC
:10334000919B939BA19BA59BA99BB19BB39BB59B79
:10335000B79C619C629C659C699C719C739C759CEC
:10336000769C779C789C7C9C7D9C819C829C859C97
:10337000899C919C939C959C969C979CA19CA29CBB
:10338000A59CB59CB79CE19CE29CE59CE99CF19CCA
:10339000F39CF59CF69CF79CFD9D419D429D459DAF
:1033A000499D519D539D559D579D619D629D659D74
:1033B000699D719D739D759D769D779D819D859D70
:1033C000939D959DA19DA29DA59DA99DB19DB39DF8
:1033D000B59DB79DC19DC59DD79DF69E419E459EBD
:1033E000499E519E539E559E579E619E659E699E25
:1033F000739E759E779E819E829E859E899E919EDC
:10340000939E959E979EA19EB69EC19EE19EE29E32
:10341000E59EE99EF19EF59EF79F419F429F459F45
:10342000499F519F539F559F579F619F629F659FE3
:10343000699F719F739F759F779F789F7B9F7C9FEC
:10344000A19FA29FA59FA99FB19FB39FB59FB7A022
:1034500061A062A065A067A068A069A06AA06BA037
:1034600071A073A075A077A078A07BA07DA081A09B
:1034700082A085A089A091A093A095A096A097A0D6
:1034800098A0A1A0A2A0A9A0B7A0E1A0E2A0E5A059
:10349000E9A0EBA0F1A0F3A0F5A0F7A0F8A0FDA192
:1034A00041A142A145A149A151A153A155A156A1B4
:1034B00057A161A162A165A169A175A176A177A1BA
:1034C00079A181A1A1A1A2A1A4A1A5A1A9A1ABA11A
:1034D000B1A1B3A1B5A1B7A1C1A1C5A1D6A1D7A2E0
:1034E00041A245A249A253A255A257A261A265A238
:1034F00069A273A275A281A282A283A285A288A2D8
:1035000089A28AA28BA291A293A295A297A29BA222
:103510009DA2A1A2A5A2A9A2B3A2B5A2C1A2E1A205
:10352000E5A2E9A341A345A349A351A355A361A3E0
:1035300065A369A371A375A3A1A3A2A3A5A3A8A32F
:10354000A9A3ABA3B1A3B3A3B5A3B6A3B7A3B9A3D0
:10355000BBA461A462A463A464A465A468A469A4D0
:103560006AA46BA46CA471A473A475A477A47BA4AF
:1035700081A482A485A489A491A493A495A496A4CB
:1035800097A49BA4A1A4A2A4A5A4B3A4E1A4E2A48B
:10359000E5A4E8A4E9A4EBA4F1A4F3A4F5A4F7A49A
:1035A000F8A541A542A545A548A549A551A553A5FE
:1035B00055A556A557A561A562A565A569A573A5DD
:1035C00075A576A577A57BA581A585A5A1A5A2A5AD
:1035D000A3A5A5A5A9A5B1A5B3A5B5A5B7A5C1A541
:1035E000C5A5D6A5E1A5F6A641A642A645A649A62B
:1035F00051A653A661A665A681A682A685A688A621
:1036000089A68AA68BA691A693A695A697A69BA601
:103610009CA6A1A6A9A6B6A6C1A6E1A6E2A6E5A675
:10362000E9A6F7A741A745A749A751A755A757A7B7
:1036300061A762A765A769A771A773A775A7A1A7C7
:10364000A2A7A5A7A9A7ABA7B1A7B3A7B5A7B7A7D7
:10365000B8A7B9A861A862A865A869A86BA871A84D
:1036600073A875A876A877A87DA881A882A885A840
:1036700089A891A893A895A896A897A8A1A8A2A858
:10368000B1A8E1A8E2A8E5A8E8A8E9A8F1A8F5A8EA
:10369000F6A8F7A941A957A961A962A971A973A9B7
:1036A00075A976A977A9A1A9A2A9A5A9A9A9B1A92E
:1036B000B3A9B7AA41AA61AA77AA81AA82AA85AAB0
:1036C00089AA91AA95AA97AB41AB57AB61AB65AB01
:1036D00069AB71AB73ABA1ABA2ABA5ABA9ABB1AB03
:1036E000B3ABB5ABB7AC61AC62AC64AC65AC68AC69
:1036F00069AC6AAC6BAC71AC73AC75AC76AC77ACE6
:103700007BAC81AC82AC85AC89AC91AC93AC95AC14
:1037100096AC97ACA1ACA2ACA5ACA9ACB1ACB3AC27
:10372000B5ACB7ACC1ACC5ACC9ACD1ACD7ACE1ACF5
:10373000E2ACE3ACE4ACE5ACE8ACE9ACEBACECACF3
:10374000F1ACF3ACF5ACF6ACF7ACFCAD41AD42ADD1
:1037500045AD49AD51AD53AD55AD56AD57AD61AD6C
:1037600062AD65AD69AD71AD73AD75AD76AD77AD7B
:1037700081AD85AD89AD97ADA1ADA2ADA3ADA5AD30
:10378000A9ADABADB1ADB3ADB5ADB7ADBBADC1AD31
:10379000C2ADC5ADC9ADD7ADE1ADE5ADE9ADF1ADFA
:1037A000F5ADF6AE41AE45AE49AE51AE53AE55AEF7
:1037B00061AE62AE65AE69AE71AE73AE75AE77AE38
:1037C00081AE82AE85AE88AE89AE91AE93AE95AE37
:1037D00097AE99AE9BAE9CAEA1AEB6AEC1AEC2AE38
:1037E000C5AEC9AED1AED7AEE1AEE2AEE5AEE9AEA2
:1037F000F1AEF3AEF5AEF7AF41AF42AF49AF51AF67
:1038000055AF57AF61AF62AF65AF69AF6AAF71AF28
:1038100073AF75AF77AFA1AFA2AFA5AFA8AFA9AF98
:10382000B0AFB1AFB3AFB5AFB7AFBCB061B062B01E
:1038300064B065B069B071B073B076B077B07DB088
:1038400081B082B085B089B091B093B096B097B096
:10385000B7B0E1B0E2B0E5B0E9B0EBB0F1B0F3B0D1
:10386000F6B0F7B141B145B149B157B1A1B1A2B17B
:10387000A5B1A8B1A9B1ABB1B1B1B3B1B7B1C1B143
:10388000C2B1C5B1D6B1E1B1F6B241B245B249B2A9
:1038900051B253B261B281B282B285B289B291B2F1
:1038A00093B297B2A1B2B6B2C1B2E1B2E5B357B327
:1038B00061B362B365B369B36BB370B371B373B320
:1038C00081B385B389B391B3A1B3A2B3A5B3A9B3AF
:1038D000B1B3B3B3B5B3B7B461B462B465B466B4ED
:1038E00067B469B46AB46BB470B471B473B475B4CA
:1038F00076B477B47BB47CB481B482B485B489B433
:1039000091B493B495B496B497B4A1B4A2B4A5B449
:10391000A9B4ACB4B1B4B3B4B5B4B7B4BBB4BDB46A
:10392000C1B4C5B4C9B4D3B4E1B4E2B4E5B4E6B447
:10393000E8B4E9B4EAB4EBB4F1B4F3B4F4B4F5B474
:10394000F6B4F7B4F8B4FAB4FCB541B542B545B530
:1039500049B551B553B555B557B561B562B563B500
:1039600065B569B56BB56CB571B573B574B575B53D
:1039700076B577B57BB57CB57DB581B585B589B5AF
:1039800091B593B595B596B5A1B5A2B5A5B5A9B5AF
:10399000AAB5ABB5ADB5B0B5B1B5B3B5B5B5B7B5FD
:1039A000B9B5C1B5C2B5C5B5C9B5D1B5D3B5D5B52C
:1039B000D6B5D7B5E1B5E2B5E5B5F1B5F5B5F7B62C
:1039C00041B642B645B649B651B653B655B657B6E6
:1039D00061B662B665B669B671B673B675B677B6D6
:1039E00081B682B685B689B68AB68BB691B693B6DD
:1039F00095B697B6A1B6A2B6A5B6A9B6B1B6B3B6F6
:103A0000B6B6B7B6C1B6C2B6C5B6C9B6D1B6D3B6E4
:103A1000D7B6E1B6E2B6E5B6E9B6F1B6F3B6F5B6B5
:103A2000F7B741B742B745B749B751B753B755B7DD
:103A300057B759B761B762B765B769B76FB771B7AD
:103A400073B775B777B778B779B77AB77BB77CB7FD
:103A50007DB781B785B789B791B795B7A1B7A2B739
:103A6000A5B7A9B7AAB7ABB7B0B7B1B7B3B7B5B732
:103A7000B6B7B7B7B8B7BCB861B862B865B867B819
:103A800068B869B86BB871B873B875B876B877B8F4
:103A900078B881B882B885B889B891B893B895B824
:103AA00096B897B8A1B8A2B8A5B8A7B8A9B8B1B840
:103AB000B7B8C1B8C5B8C9B8E1B8E2B8E5B8E9B8AF
:103AC000EBB8F1B8F3B8F5B8F7B8F8B941B942B9FD
:103AD00045B949B951B953B955B957B961B965B97A
:103AE00069B971B973B976B977B981B9A1B9A2B910
:103AF000A5B9A9B9ABB9B1B9B3B9B5B9B7B9B8B97D
:103B0000B9B9BDB9C1B9C2B9C9B9D3B9D5B9D7B9AC
:103B1000E1B9F6B9F7BA41BA45BA49BA51BA53BA96
:103B200055BA57BA61BA62BA65BA77BA81BA82BA77
:103B300085BA89BA8ABA8BBA91BA93BA95BA97BA42
:103B4000A1BAB6BAC1BAE1BAE2BAE5BAE9BAF1BA0B
:103B5000F3BAF5BB41BB45BB49BB51BB61BB62BBC3
:103B600065BB69BB71BB73BB75BB77BBA1BBA2BB9C
:103B7000A5BBA8BBA9BBABBBB1BBB3BBB5BBB7BBFC
:103B8000B8BBBBBBBCBC61BC62BC65BC67BC69BC30
:103B90006CBC71BC73BC75BC76BC77BC81BC82BC90
:103BA00085BC89BC91BC93BC95BC96BC97BCA1BCA0
:103BB000A5BCB7BCE1BCE2BCE5BCE9BCF1BCF3BC54
:103BC000F5BCF6BCF7BD41BD57BD61BD76BDA1BD1D
:103BD000A2BDA5BDA9BDB1BDB3BDB5BDB7BDB9BD84
:103BE000C1BDC2BDC9BDD6BDE1BDF6BE41BE45BE6B
:103BF00049BE51BE53BE77BE81BE82BE85BE89BE60
:103C000091BE93BE97BEA1BEB6BEB7BEE1BF41BFD7
:103C100061BF71BF75BF77BFA1BFA2BFA5BFA9BF5D
:103C2000B1BFB3BFB7BFB8BFBDC061C062C065C0E0
:103C300067C069C071C073C075C076C077C078C0F6
:103C400081C082C085C089C091C093C095C096C014
:103C500097C0A1C0A5C0A7C0A9C0B1C0B7C0E1C0EE
:103C6000E2C0E5C0E9C0F1C0F3C0F5C0F6C0F7C1DD
:103C700041C142C145C149C151C153C155C157C1DB
:103C800061C165C176C181C185C197C1A1C1A2C110
:103C9000A5C1A9C1B1C1B3C1B5C1B7C1C1C1C5C178
:103CA000C9C1D7C241C245C249C251C253C255C29D
:103CB00057C261C271C281C282C285C289C291C229
:103CC00093C295C297C2A1C2B6C2C1C2C5C2E1C267
:103CD000E5C2E9C2F1C2F3C2F5C2F7C341C345C3AD
:103CE00049C351C357C361C362C365C369C371C3C9
:103CF00073C375C377C3A1C3A2C3A5C3A8C3A9C314
:103D0000AAC3B1C3B3C3B5C3B7C461C462C465C4F5
:103D100069C471C473C475C477C481C482C485C4C2
:103D200089C491C493C495C496C497C4A1C4A2C4C1
:103D3000B7C4E1C4E2C4E5C4E8C4E9C4F1C4F3C44F
:103D4000F5C4F6C4F7C541C542C545C549C551C509
:103D500053C555C557C561C565C569C571C573C529
:103D600075C576C577C581C5A1C5A2C5A5C5A9C5B7
:103D7000B1C5B3C5B5C5B7C5C1C5C2C5C5C5C9C53A
:103D8000D1C5D7C5E1C5F7C641C649C661C681C61A
:103D900082C685C689C691C693C695C697C6A1C672
:103DA000A5C6A9C6B7C6C1C6D7C6E1C6E2C6E5C69E
:103DB000E9C6F1C6F3C6F5C6F7C741C745C749C747
:103DC00051C761C762C765C769C771C773C777C77E
:103DD000A1C7A2C7A5C7A9C7B1C7B3C7B5C7B7C849
:103DE00061C862C865C869C86AC871C873C875C83F
:103DF00076C877C881C882C885C889C891C893C861
:103E000095C896C897C8A1C8B7C8E1C8E2C8E5C8B0
:103E1000E9C8EBC8F1C8F3C8F5C8F6C8F7C941C985
:103E200042C945C949C951C953C955C957C961C9C9
:103E300065C976C981C985C9A1C9A2C9A5C9A9C9C8
:103E4000B1C9B3C9B5C9B7C9BCC9C1C9C5C9E1CA36
:103E500041CA45CA55CA57CA61CA81CA82CA85CAF7
:103E600089CA91CA93CA95CA97CAA1CAB6CAC1CA11
:103E7000E1CAE2CAE5CAE9CAF1CAF3CAF7CB41CB43
:103E800045CB49CB51CB57CB61CB62CB65CB68CB14
:103E900069CB6BCB71CB73CB75CB81CB85CB89CB0E
:103EA00091CB93CBA1CBA2CBA5CBA9CBB1CBB3CBA1
:103EB000B5CBB7CC61CC62CC63CC65CC69CC6BCCD8
:103EC00071CC73CC75CC76CC77CC7BCC81CC82CCCE
:103ED00085CC89CC91CC93CC95CC96CC97CCA1CCED
:103EE000A2CCE1CCE2CCE5CCE9CCF1CCF3CCF5CC66
:103EF000F6CCF7CD41CD42CD45CD49CD51CD53CDB9
:103F000055CD57CD61CD65CD69CD71CD73CD76CD14
:103F100077CD81CD89CD93CD95CDA1CDA2CDA5CDA8
:103F2000A9CDB1CDB3CDB5CDB7CDC1CDD7CE41CED5
:103F300045CE61CE65CE69CE73CE75CE81CE82CEB2
:103F400085CE88CE89CE8BCE91CE93CE95CE97CE90
:103F5000A1CEB7CEE1CEE5CEE9CEF1CEF5CF41CFC1
:103F600045CF49CF51CF55CF57CF61CF65CF69CF1F
:103F700071CF73CF75CFA1CFA2CFA5CFA9CFB1CF2E
:103F8000B3CFB5CFB7D061D062D065D069D06ED095
:103F900071D073D075D077D081D082D085D089D0C0
:103FA00091D093D095D096D097D0A1D0B7D0E1D072
:103FB000E2D0E5D0E9D0EBD0F1D0F3D0F5D0F7D115
:103FC00041D142D145D149D151D153D155D157D108
:103FD00061D162D165D169D171D173D175D176D1F9
:103FE00077D181D185D189D193D1A1D1A2D1A5D1C8
:103FF000A9D1AED1B1D1B3D1B5D1B7D1BBD1C1D196
:10400000C2D1C5D1C9D1D5D1D7D1E1D1E2D1E5D184
:10401000F5D1F7D241D242D245D249D253D255D26C
:1040200057D261D265D269D273D275D281D282D28F
:1040300085D289D28ED291D295D297D2A1D2A5D251
:10404000A9D2B1D2B7D2C1D2C2D2C5D2C9D2D7D2E7
:10405000E1D2E2D2E5D2E9D2F1D2F3D2F5D2F7D36E
:1040600041D342D345D349D351D355D357D361D349
:1040700062D365D367D368D369D36AD371D373D35B
:1040800075D377D37BD381D385D389D391D393D37E
:1040900097D3A1D3A2D3A5D3A9D3B1D3B3D3B5D347
:1040A000B700000000000000000000000000000059
:1040B00000F0082808082808F00708090B0B090871
:1040C00007F0F8D8F8F8D8F8F0070F0E0C0C0E0F20
:1040D0000700F0F8F8F0F8F8F0000003070F070306
:1040E000000080C0E0F0E0C0800000010307030191
:1040F0000000C0C0F8F8F8C0C000030B090F090B9E
:104100000300C0E0F0F8F0E0C000010B0B0F0B0B58
:1041100001000080C0C08000000000010303010016
:1041200000FEFE7E3E3E7EFEFE7F7F7E7C7C7E7FAE
:104130007F00C060202060C0000003060404060366
:1041400000FE3E9EDEDE9E3EFE7F7C797B7B797CA0
:104150007F000080C0E8B8187800070F08080F0734
:10416000000070F88888F870000002020F0F020249
:1041700000000000F8F83060C000060F0F070000D4
:10418000000000F8F82828F8F800070703000E0FD1
:10419000070010C0E028E0C010000401030A03017A
:1041A0000400F8F0E0C0C08080000F0703010100A8
:1041B00000008080C0C0E0F0F800000001010307AB
:1041C0000F002030F8F83020000002060F0F060222
:1041D000000070F8F800F8F87000000D0D000D0DEB
:1041E0000070F888F8F808F8F80000000F0F000FCA
:1041F0000F00D8FC2464CC880000081913121F0D8E
:10420000000000000000000000000F0F0F0F0F0F54
:104210000F002030F8F83020000012161F1F161271
:1042200000002030F8F83020000000000F0F0000E0
:1042300000000000F8F80000000002060F0F060260
:10424000000080808080E0C080000000000003014A
:10425000000080C0E080808080000001030000003A
:104260000000C0C0000000000000030302020202C0
:104270000280C0E08080E0C08000010300000301F4
:1042800000000000C0F8C00000000C0F0F0F0F0F5F
:104290000C001878F8F8F87818000000010F0100F9
:1042A000000000000000000000000000000000000E
:1042B00000000070F8F87000000000000D0D000014
:1042C000000020381820381800000000000000000E
:1042D000000020F8F820F8F82000020F0F020F0F5E
:1042E000020060F09C9CB020000002061C1C07032A
:1042F0000000207070A0C0602000040603050E0EB0
:10430000040000B0F8C878B08000070F0809070F54
:104310000800002038180000000000000000000025
:10432000000000E0F018080000000003070C08007F
:104330000000000818F0E000000000080C0703006F
:10434000000080A0E0C0E0A08000000203010302A2
:1043500000008080E0E08080000000000303000097
:104360000000000000000000000000101C0C000015
:10437000000080808080808000000000000000003D
:104380000000000000000000000000000C0C000015
:10439000000000000080C06030000C060301000037
:1043A0000000F0F888C8F8F00000070F09080F07B0
:1043B00000000010F8F80000000000080F0F0800CF
:1043C000000010180888F87000000C0E0B0908088F
:1043D0000000080848E8B8180000040C08080F0797
:1043E0000000C0E030F8F80000000303020F0F02E5
:1043F000000078784848C8880000040C08080F07B7
:104400000000E0F0988888000000070F08080F07F8
:104410000000080888C878380000000F0F0000006E
:10442000000070F88888F8700000070F08080F0770
:10443000000070F88888F8F000000008080C0703F6
:104440000000000030300000000000000606000000
:104450000000000030300000000000080E060000E0
:10446000000080C0603018080000000103060C083E
:1044700000004040404040400000020202020202B0
:10448000000008183060C0800000080C060301001E
:104490000000101888C87830000000000D0D0000E2
:1044A0000000F0F808C8F8F00000070F080B0B0137
:1044B0000000E0F01818F0E000000F0F01010F0FEE
:1044C0000000F8F88888F87000000F0F08080F0740
:1044D0000000F0F8080818100000070F08080C0486
:1044E0000000F8F80808F8F000000F0F08080F07A0
:1044F0000000F8F88888880800000F0F08080808EE
:104500000000F8F88888880800000F0F00000000FD
:104510000000F0F8080808080000070F08090F0F4E
:104520000000F8F88080F8F800000F0F00000F0F6F
:1045300000000008F8F80800000000080F0F08004D
:10454000000000000000F8F80000040C08080F0745
:104550000000F8F880E0781800000F0F00030F0C3F
:104560000000F8F80000000000000F0F080808081D
:104570000000F8F830E030F8F8000F0F0000000FEE
:104580000F00F8F8E080F8F800000F0F00030F0F9D
:104590000000F0F80808F8F00000070F08080F07FF
:1045A0000000F8F88888F87000000F0F0000000085
:1045B0000000F0F80808F8F00000070F08081F17BF
:1045C0000000F8F88888F87000000F0F01030E0C47
:1045D000000070F8888898100000040C08080F0785
:1045E00000000808F8F80808000000000F0F00009D
:1045F0000000F8F80000F8F80000070F08080F079F
:104600000000F8F80000F8F8000003070C0C07039E
:104610000000F8F8008000F8F8000F0F0603060FFE
:104620000F003878C0C0783800000E0F01010F0E5F
:10463000000078F88080F878000000000F0F00007C
:104640000000080888C8783800000E0F090808081C
:10465000000000F8F80808000000000F0F0808002C
:1046600000003060C0800000000000000001030670
:104670000C00000808F8F80000000008080F0F0000
:10468000000010180C0C18100000000000000000C2
:10469000000000000000000000202020202020203A
:1046A000200000001838200000000000000000007A
:1046B000000000404040C0800000060F09090F0FB5
:1046C0000000F8F84040C08000000F0F08080F07F6
:1046D000000080C04040C0800000070F08080C04A4
:1046E000000080C04040F8F80000070F08080F0FD6
:1046F000000080C04040C0800000070F0A0A0B0B7A
:10470000000080F0F88898100000000F0F000000F3
:10471000000080C04040C0800000074F48487F3FF5
:104720000000F8F84040C08000000F0F00000F0F9D
:1047300000000040D8D80000000000080F0F08005B
:10474000000000000040D8D80000001030203F1FBB
:104750000000F8F80080C04000000F0F03070C08AD
:1047600000000008F8F80000000000080F0F080023
:104770000000C0C0C080C0C080000F0F0007000F45
:104780000F00C0C04040C08000000F0F00000F0F9E
:10479000000080C04040C0800000070F08080F07DD
:1047A0000000C0C04040C08000007F7F08080F07A5
:1047B000000080C04040C0C00000070F08087F7F95
:1047C0000000C0C080C0404000000F0F010000008A
:1047D000000080C0404040400000080909090F0661
:1047E000000040F8F8404000000000070F080C04EB
:1047F0000000C0C00000C0C00000070F08080F0F75
:104800000000C0C00000C0C0000003070C0C07037C
:104810000000C0C0000000C0C000070F0C070C0F54
:10482000070040C0800080C04000080C0703070C50
:104830000800C0C00000C0C00000074F48487F3FCC
:104840000000404040C0C04000000C0E0B090808AA
:1048500000000080F078080800000000070F08083A
:104860000000000078780000000000000F0F00003A
:10487000000000080878F08000000008080F07001A
:10488000000080C040C080C0400000000000000068
:1048900000000080C060C080000007070404040717
:1048A000070000000000000000000000FC0F00E016
:1048B0000F003C00000000FE3F00FF3F0020000012
:1048C00000151E0000F87F00F000000031FE1F0000
:1048D000F83F00F000000045FF3F00FE7F001C078E
:1048E000000060FE0700FE1F00FC03000082FF0FB7
:1048F00000FC070004000000A00E0700FC0700FCFD
:10490000070000B6EE0E00FC0F00FC0F0000CE808A
:104910000700FF3F0000000000EBE03D00FF3F000C
:1049200000000000FDF80300FE0F0000000001136E
:10493000FE0F00FF3F000000000125FE1F00FF3FAB
:1049400000040000013EFE0F00FE3F0001000001D8
:1049500059FC1F00FE1F001C00000172FF0700FC35
:104960001F00FC0300018CFF1F00383F00FF070001
:1049700001AAF01B00FF3F00E0010001CB00000096
:1049800000000000000001CBF0FF0F00000F00004E
:104990000001E5FCF30FC0010700000001F97800F9
:1049A00000E0FF07000000020FF8FF03E0FF070030
:1049B00000000221FCFB0FF8F71F000000023EF090
:1049C000FF03F8FF070000000260F0FF03C0FF01D3
:1049D000000000027EE08003C0FF03000000029799
:1049E000707707E0E70700000002A9003C00FCFF29
:1049F0003F00000002C1C0E301FEFF0F0000000203
:104A0000D9C0FF03C0FF0300000002F4F0FF01FC67
:104A1000FF0F000000030CF8FF07FCFF0F00000071
:104A2000032BF0FF03FCFF1F000000034DF0FF0FFE
:104A3000F0FF07000000036EF8FF07E0FF0700002B
:104A400000038DF0FF0FF0FF0F00000003ABF8FF35
:104A50000FC0FF0100000003CB00000000000000B9
:104A6000000003CBF0FF0300C00000000003E7FCE0
:104A7000F70F80010300000003F7788003C0FF07F1
:104A8000000000040CF8FF03C0FF07000000042032
:104A9000F8FF0FE0E71F000000043CF0FF03C0FF39
:104AA00007000000045BE0FF0380FF01000000043A
:104AB00076E0FF01C0FF01000000048DF0F707E081
:104AC000E70700000004A400FF00F8C10F00000089
:104AD00004BEE0F7033E1F1E00000004D2C0FF0129
:104AE00080FF0000000004ECF0FF03F8000F00005E
:104AF000000500FCFF0F9E0F0C0000000517F0FFE3
:104B000001F880070000000534F0FF070080010075
:104B10000000054AF0FF07C0FF07000000055BF03A
:104B2000FF07F0FF070000000577F0FF0F80FF018F
:104B30000000000595000000000000000000059541
:104B4000F83F00001C0000000005AF7E3F00783CED
:104B50000000000005BD0F0000FC0F000000000574
:104B6000D1FF0700FC0F0000000005DFFE3F007CC6
:104B70007F0000000005F4FE1F00FE1F0000000083
:104B8000060DFE1F00F80F0000000006251C0E0099
:104B9000F80F00000000063AE71C00FE1F000000AE
:104BA000000649E00100FF1F00000000065E780FCC
:104BB00000FF3F00000000066FFC0F00FC0F00002C
:104BC00000000685FC0F00FE1F000000000699FE95
:104BD0003F00FF7F0000000006AFFE0700FF1F0040
:104BE00000000006CBFC3F00FC1F0000000006E2B6
:104BF000FE1F00FC1F0000000006F9FE1F00FE3F24
:104C0000000000000710FE3F00FC0F00000000073E
:104C1000290000000000000000000729FC1F000020
:104C20000E0000000007407E3F00783C00000000BE
:104C3000074E1E0000F81F000000000762FE0F0074
:104C4000F81F000000000770FE3F007C7F0000009E
:104C5000000785FC1F00FC1F00000000079EFC3FB2
:104C600000F01F0000000007B4FC1F00F81F000048
:104C7000000007C9FF1F00FE1F0000000007DEC084
:104C80000300FC1F0000000007F7F01E00FF7B0080
:104C90000000000806F81F00F81F00000000081CB4
:104CA000FC0F00FE3F000000000830FE7F00FF7F89
:104CB000000000000847FC0F00FE3F000000000855
:104CC00064FC1F00FC0F00000000087BFC3F00F8A4
:104CD0003F000000000890FE1F00FC1F00000000C5
:104CE00008A7FE3F00F80F0000000008BE0000000B
:104CF00000000000000008BEFC0F00FE03000000E2
:104D00000008D4FE1F00FE070000000008E71E0098
:104D100000F81F0000000008FDFE0F00F83F000033
:104D20000000090BFF3F00FE7F000000000921FC8E
:104D30001F00F81F00000000093DFE1F00F80F00D3
:104D40000000000952FC0F00F80F00000000096786
:104D5000FF1F00FE1F00000000097AC007007E1F31
:104D6000000000000993F01E00FF7F000000000912
:104D7000A3FC0F00FC0F0000000009BAFC1F00FCA0
:104D80003E0000000009CEFF1F00FF3F00000000B2
:104D900009E4FC1F00FC3F0000000009FFFE1F00AB
:104DA000FC03000000000A16FE0F00F81F000000C0
:104DB000000A2AFE1F00FE3F000000000A3FFE1FFF
:104DC00000F80F000000000A58000000000000007A
:104DD00000000A58E0FF070080010000000A6DF89B
:104DE000F70F8001030000000A7DF0000380FF0739
:104DF0000000000A91F0FF0380FF070000000AA3F3
:104E0000F8FF0FE0EF1F0000000ABDE0FF07C0FF42
:104E1000070000000ADDE0FF0380FF010000000A38
:104E2000F8C0FF0380FF030000000B0FF0F707E05E
:104E3000E7070000000B26E0FF0F18000C00000041
:104E40000B40E0FF0F3C0F1C0000000B5380FF01E4
:104E500000FF000000000B6DE0FF0F78000C000069
:104E6000000B7FFCFF0F1E1E0C0000000B94F0FFD8
:104E70001FF800180000000BB0E0FF0F0000030057
:104E800000000BC8F0FF0380FF070000000BD9F003
:104E9000FF07F0FF0F0000000BF3F0FF0F00FF0013
:104EA0000000000C120000000000000000000C12C6
:104EB000F81F000004000000000C2AFE1F00100470
:104EC000000000000C35FC1F006000000000000C1A
:104ED00043FC1F000000000000000C50FE3F0000DB
:104EE00000000000000C5BF81F00E01F0000000045
:104EF0000C68FC1F00F00F000000000C7AF80F0097
:104F0000F00F000000000C8DFC1F00F81F000000D7
:104F1000000C9EFC3F000200000000000CB3FE7F6E
:104F2000002100000000000CC0F81F00C0030000BA
:104F300000000CD0FC1F000600000000000CDEFE8C
:104F40007F007160000000000CEBFC1F001E3800A9
:104F50000000000CFFFC1F000004000000000D1109
:104F6000FE1F00F01F000000000D1DFC1F00FC1FB5
:104F7000000000000D32FC3F00E007000000000DC3
:104F8000480000000000000000000D4800800700FD
:104F900000FE0000060D5A00C03F00003F00003335
:104FA0000D670080070000FE0000060D7900C03F7D
:104FB00000003F0000330D8600000F00F00F0000DE
:104FC0000C0D9800C03F00F8330000330DA6000020
:104FD0000F00F00F00000C0DBB00C03F00F83300C5
:104FE00000330DC9000000000E00FFFFFF0DDE00C2
:104FF0008007E0C0FEFF3F060DF900C03FE0603FC4
:10500000FF1F330E1900000FE0800DFF7F0C0E3DD7
:10501000000000C07100FFFFFF0E59000000FFFFFD
:10502000FF0018000E7700000FFFFF0D80F90F0E34
:105030009100C03FFF7F3380F9330EB300000FFFB4
:10504000FF0D80010C0ED9000000FFFFFF00C30020
:105050000EF4000000000000FFFFFF0F1000000F23
:1050600001E00DFE1F0C0F2800000F00000C0000D7
:105070000C0F410000000000000000000F41008004
:10508000070000FE0000060F4900E01F00801F001F
:1050900080190F560080070000FE0000060F680010
:1050A000E01F00801F0080190F7500000F00E00F47
:1050B00000000C0F8700C03F00F0330000330F9456
:1050C00000000F00E00F00000C0FA800C03F00F030
:1050D000330000330FB5000000001C00FFFFFF0F7E
:1050E000C9008007C0C0FEFF3F060FE400C03FC0FC
:1050F000603FFF1F33100300000FC0800DFF7F0CC7
:10510000102600000080E300FFFFFF1041000000B8
:10511000FFFFFF001800105F00000FFFFF0D80F978
:105120000F107900C03FFF7F3380F933109B0000E0
:105130000FFFFF0D80010C10C1000000FFFFFF00FA
:10514000C30010DC000000000000FFFFFF10F800AB
:10515000000F01E00DFE1F0C111000000F00000CED
:1051600000000C11290000000000000000001129BF
:105170000080FF000006000000113100C01F008009
:1051800019000000113C0080FF0000FE000000112B
:105190004700C01F00801F000000115700F00F00E3
:1051A000600C000000116400FC1F00881900000062
:1051B000117000C00F00C00F000000118000F81F28
:1051C00000F819000000118C000C00FFFFFF000028
:1051D00000119EC08067FEFFFF00000011B8C08074
:1051E0003FFEFF3300000011D7C0000FFEFF0F008D
:1051F000000011F3000000FFFFFF000000120C0090
:105200000000FFFFFF000000122400000FFFFF0F4F
:10521000000000123C00803FFFFF330000001254EA
:1052200000000FFFFF0D000000126F000000FFFFE5
:10523000FF0000001286000000FFFFFF00000012C8
:105240009E00000FFFFF0D00000012B600000F00CF
:10525000000C00000012CD00000000000000000063
:1052600012CD0080FF00000600000012D300C01F16
:1052700000801900000012DE0080FF0000FE000028
:105280000012E900C01F00801F00000012F900E0BA
:105290000F00C00C000000130600F81F009019005A
:1052A0000000131100C00F00C00F00000013200009
:1052B000F81F00F819000000132C000000FFFFFF8A
:1052C000000000133E008067FEFFFF000000135641
:1052D00000803FFEFF33000000137300000FFEFF4D
:1052E0000F000000138D000000FFFFFF00000013FF
:1052F000A4000000FFFFFF00000013BC00000FFF30
:10530000FF0F00000013D400803FFFFF33000000B8
:1053100013EC00000FFFFF0D000000140700000059
:10532000FFFFFF000000141E000000FFFFFF000051
:1053300000143600000FFFFF0D000000144E0000A7
:105340000F00000C000000146500000000000000C9
:1053500000001465000000C0FF07800106146B0008
:105360000000F0F707202606147C000000F08703F9
:1053700020FE1F149000000000000080FF1F14A7F3
:1053800000000030F00FE0FF3F14B500000030C017
:1053900003E0FF3F14D000000000000680FF1F1450
:1053A000E700000000FF0F00FF1F14F7000000F0EF
:1053B000EF0FF04F0C1510000000F0E71FF0CF0FBB
:1053C000152A000000F0370EF0EF0F15470000001F
:1053D000F08F03F0FF1F1562000000F0EF1FF0CF09
:1053E0001F157E000000F0F71FF0FF1F159D000045
:1053F00000F0CF03F0FF1F15BE000000000000C04A
:10540000FF0F15DB00000080010700FF0715E90012
:105410000000601C07C0FF3F15F9000000003800C5
:10542000E0FF0F1611000000008703F8FF3F16236E
:1054300000000000600000FE07163C00000080FF36
:105440000780FF0F1648000000007C0080FF0F1649
:1054500061000000000000E0FF071673000000007C
:105460000002C0FF0F1681000000C0FF0FE0FF1F09
:10547000169000000020FC0CC0FF1F16AE000000BC
:1054800000000000000016AE000000C0FF07800111
:105490000616C6000000E0EF0F404C0C16D70000C7
:1054A00000E00F0740FC3F16EB000000000000800A
:1054B000FF1F170200000030F00FE0FF3F17100041
:1054C000000000C003F0FF1F172B000000000006C3
:1054D00080FF1F174000000080FF0F80FF1F175044
:1054E000000000F0EF0FF05F0C176B000000F0E71A
:1054F0001FF0DF0F1786000000F0370EF0FF0F17C8
:10550000A4000000F08F03F0FF1F17C0000000F0A0
:10551000EF1FF0DF1F17DC000000F0EF3FF0FF3F50
:1055200017FC000000F09F07F0FF3F181F0000006D
:10553000000000C0FF0F183E00000000030E00FE38
:105540000F184C000000601C07C0FF3F185C0000F3
:1055500000003800E0FF0F1874000000008703F817
:10556000FF3F188600000000C00000FC0F189F00DD
:10557000000000FF0F00FF1F18AB00000000F80044
:1055800000FF1F18C400000080FF0FC0FF0F18D6D7
:1055900000000080FF0700FF0F18F100000080FFEF
:1055A0001FC0FF3F190900000040F01980FF3F199C
:1055B0002700000000000000000019270000008004
:1055C000FF0F00030C193E000000C0DF1F80981879
:1055D000194F000000C01F0E80F87F196300000003
:1055E00000000000FF3F197A00000030F00FE0FFDC
:1055F0003F198800000000C003F0FF1F19A300003E
:105600000000000680FF1F19B800000080FF0F8017
:10561000FF1F19C8000000F0DF1FF0BF1819E300DA
:105620000000F0DF3FF09F1F1A00000000F06F1C29
:10563000F0DF1F1A20000000F01F07F0FF3F1A3DA7
:10564000000000F0EF1FF0DF1F1A5B000000F0EF1A
:105650003FF0FF3F1A7B000000F09F07F0FF3F1A6A
:105660009E00000000000080FF1F1ABD00000080A7
:10567000010E00FF0F1ACB000000601C07C0FF3FA7
:105680001ADC000000003800E0FF0F1AF4000000F0
:10569000008703F8FF3F1B0600000000C00000FC6D
:1056A0000F1B1F00000000FF0F00FF1F1B2B00003F
:1056B0000000F80000FF1F1B4400000080FF0FC027
:1056C000FF0F1B5600000080FF0F00FF1F1B710023
:1056D000000080FF1FC0FF3F1B8B00000040F0193F
:1056E00080FF3F1BA90000000000000000001BA974
:1056F000000000E0FF03C000031BC0000000F8F73B
:105700000F10260C1BD1000000F8870310FE7F1B32
:10571000E7000000000000E0FF0F1C010000003067
:10572000F00FE0FF3F1C1000000030E003E0FF1F1F
:105730001C2B000000000003E0FF0F1C42000000D3
:10574000C0FF07C0FF0F1C53000000F0FF0FF02F39
:105750000C1C6E000000F0FF1FF0EF0F1C89000012
:1057600000F03F0EF0EF0F1CA9000000F08F03F0D7
:10577000FF1F1CC5000000F0EF1FF0DF1F1CE10041
:105780000000F0EF3FF0FF3F1D01000000F09F0719
:10579000F0FF3F1D24000000000000E0FF071D4354
:1057A000000000C0800380FF031D51000000308E08
:1057B00003E0FF7F1D61000000001C00F0FF071DDB
:1057C0007B00000080C301FCFF1F1D8D0000000056
:1057D000180080FF011DA6000000C0FF07C0FF07E2
:1057E0001DB2000000003F00C0FF071DCC000000FC
:1057F000C0FF07E0FF071DDF000000000003E0FF1F
:105800000F1DFA000000E0FF0FF0FF1F1E0B00004D
:1058100000107E06E0FF0F1E2B40C0C040404040FD
:10582000C0C0C080C0703C0F07010402030140C02B
:10583000C04040C0C0C04040C0C0C08040603018C0
:105840000E87C361301C0F03010140C0C080FFFF01
:10585000808080808080804040200101010140C024
:10586000C0C04040404040606040FFFF808080807A
:1058700080804040200101010140C0C040406040A4
:10588000C0C04040606040FFFF80808040FFFF80DC
:10589000808080804001010101010140C0C0404082
:1058A0004040C0C04008F8F8080808080F0B808086
:1058B00040010303030301010140C0C0C040404058
:1058C0004040C0C0C0FFFF8080808080FFBF01409B
:1058D000C08020E0C0FFFF0404040404FFFF0301B4
:1058E0000101010101030140C08020E0C010F0E08F
:1058F000FFFF0404FFFF0404FFFF03010101030194
:105900000101030120E0C0C08040402030180C0697
:105910000F0B1930706020E0C0C020E0C0C0201024
:1059200010884C46273D180E1F337160808080E040
:10593000E080801E3F6140C0C0C040613F1E40C04B
:10594000C04040404040C0C0C08040402030180CA3
:10595000060F0B1930706040C0C040C0C0C040404E
:10596000C0C0C02010188CC6673D180C1E3361E003
:10597000C001808080809090B0B0A0808080814104
:105980006030180C1E133160E0C00140C0C04040C0
:10599000404040C0C0C0040C0C84C464341C0C07DC
:1059A000030102010140C0C0C0404040404060408F
:1059B000FFFF080808080C08808040010303030368
:1059C00001010140C0C04040404040404060604054
:1059D0003E7860413F1E80804001030301010101C8
:1059E000010101011030303020208080010363F17B
:1059F00091090D0F0991F16101010101010120607F
:105A00006020202020202020202020E0E0E0403FD7
:105A10000F012060202020E0E0E02060202020E036
:105A2000E0E0201F07201F072060E0C00F1F1010BC
:105A3000101010101010181818101030F0F010106E
:105A40001010101010101818100F1F101010101038
:105A50001010101818181010F0F010101018101066
:105A6000F0F01010101818100F1F30301008080434
:105A70000F1F303030101008081030301010101088
:105A800010101010F0701001031F3F21212121215F
:105A9000212121213130201030F0F0101010101091
:105AA0001010F0F0301F0F080808080808080F0B46
:105AB00010F0E008F8F03F1F111111111111111130
:105AC0003F1F20E0C010F0E010F0E008F8F03F1FAA
:105AD00011113F1F3F1F11113F1F90F0E060201078
