:020000040800F2
:1000000000000220E10B00086502000869020008F8
:100010006D0200087102000875020008000000006F
:10002000000000000000000000000000790200084D
:100030007D0200080000000081020008850200081F
:10004000310C0008310C0008310C0008310C00089C
:10005000310C0008310C0008310C0008310C00088C
:10006000310C0008310C0008310C0008310C00087C
:10007000310C0008310C0008310C0008310C00086C
:10008000310C0008310C0008310C0008310C00085C
:10009000310C0008310C0008310C0008310C00084C
:1000A000310C0008310C0008310C0008310C00083C
:1000B000310C0008310C0008310C0008310C00082C
:1000C000310C0008310C0008310C0008310C00081C
:1000D000310C0008310C0008310C0008310C00080C
:1000E000310C0008310C0008310C0008310C0008FC
:1000F000310C0008310C0008310C0008310C0008EC
:10010000310C0008310C0008310C0008310C0008DB
:10011000310C0008310C0008310C0008310C0008CB
:10012000310C0008310C0008310C0008310C0008BB
:10013000310C0008310C0008310C0008310C0008AB
:10014000310C0008310C0008310C0008310C00089B
:10015000310C0008310C0008310C0008310C00088B
:10016000310C0008310C0008310C0008310C00087B
:10017000310C0008310C0008310C0008310C00086B
:08018000310C0008310C0008ED
:1001880008B540F22C00074BC2F200001B1A062BE0
:1001980000D808BD40F20003C0F20003002BF8D0DD
:1001A8009847F6E72F00002008B540F22C0040F2EF
:1001B8002C03C2F20000C2F200031B1A9B1003EBCF
:1001C800D373591000D108BD40F20002C0F20002FA
:1001D800002AF8D09047F6E710B540F22C04C2F296
:1001E8000004237873B9FFF7CBFF40F20003C0F295
:1001F80000032BB140F63440C0F60000AFF3008096
:100208000123237010BD00BF08B540F20003C0F2FF
:1002180000034BB140F6344040F23001C0F6000014
:10022800C2F20001AFF3008040F22800C2F20000E1
:1002380003682BB140F20003C0F2000303B19847F2
:10024800BDE80840FFF7B0BF82B00190019B5A1E7D
:100258000192002BFAD102B0704700BF704700BF6F
:10026800FEE700BFFEE700BFFEE700BFFEE700BFF6
:10027800704700BF704700BF704700BF704700BF9E
:10028800374B1968002241F0010119609A6019681A
:1002980021F0847121F4803119603249596019685C
:1002A80082B021F480211960DA60009201921A6804
:1002B80042F480321A601A4603E0009BB3F5A06F3F
:1002C80009D0136803F400330193009B01330093B2
:1002D800019B002BF1D0224B1B6813F400330AD08A
:1002E80001230193019B012B09D01F4B4FF00062A2
:1002F8009A6002B070470193019B012BF5D1184B0E
:100308001A4A196C41F080511964116841F480410E
:1003180011609A689A609A6842F400429A609A68F2
:1003280042F4A0529A60124A5A601A6842F08072E7
:100338001A6019460B680A4A9B01FBD50D4B40F21F
:1003480005611960936823F003039360936843F091
:1003580002039360936803F00C03082BFAD1C4E7F7
:10036800003802401030002400ED00E0007000402A
:1003780008544007003C0240164B9A6802F00C02F1
:10038800042A0CD0082A0CD0134A1249134B896846
:10039800C1F30311595C22FA01F21A617047104A3D
:1003A800F3E7586859685B6842024CBF0C4A0A4A2E
:1003B80001F03F01C3F38813B2FBF1F202FB03F231
:1003C800044B5B68C3F3014301335B00B2FBF3F2F8
:1003D800DBE700BF003802400024F40004000020DE
:1003E80040787D01580C00080000002028000020FB
:1003F8002C000020500000200A4B1968002241F010
:10040800010119609A60196821F0847121F4803122
:10041800196005495960196821F480211960DA606A
:10042800704700BF0038024010300024024B002201
:100438001A701870704700BF0238024082B000235B
:100448000B4A019313689B0309D5019B0133019360
:10045800019B074B1868C0F3404002B07047019BEE
:1004680001330193019BB3F5A06FEBD1F1E700BF16
:1004780000380240034B1A6822F0F80242EAC00032
:100488001860704700380240014B1860704700BF81
:1004980000004742064B002201281A701A7004D047
:1004A800042801D105221A7070471870704700BFE0
:1004B80070380240014B1860704700BF800E4742F9
:1004C80010B40143019C41EA82125B08591E42EABA
:1004D8000464034B44EA0141596010BC704700BFF3
:1004E80000380240014B1860704700BF6000474267
:1004F8008001034B40EA0171C3F88410704700BFC4
:1005080000380240014B1860704700BF680047423E
:10051800014B1860704700BF4C004742034B9A6874
:1005280022F0EC62104301439960704700380240A2
:10053800034B9A6822F07842104301439960704750
:1005480000380240034B9A6822F003021043986077
:10055800704700BF00380240024B986800F00C005A
:10056800704700BF00380240034B9A6822F0F0023F
:1005780010439860704700BF00380240034B9A68E8
:1005880022F4E05210439860704700BF00380240E0
:10059800034B9A6822F4604242EAC00098607047B0
:1005A800003802401F4A936803F00C03042B10B470
:1005B8001CD0082B1DD01C4B03601A491B4A8C68A1
:1005C800C4F30314145D23FA04F343608C68C4F382
:1005D8008224145D23FA04F484608968C1F34231EB
:1005E800525C23FA02F3C36010BC7047104B0360DF
:1005F800E3E754685168526864024CBF0C4B0A4BDD
:1006080001F03F01C2F38812B3FBF1F303FB02F3DD
:10061800044A5268C2F3014201325200B3FBF2F3BA
:100628000360CAE7003802400024F40018000020E4
:1006380040787D0100F44073B3F5407F09D1084B41
:10064800996820F0704221F4F81122F440720A43AC
:100658009A60034B00051A6F000D10431867704726
:1006680000380240014B1860704700BF3C0E4742FB
:10067800014B1860704700BF400E4742014B18609D
:10068800704700BF5C014742044B1A6B19B922EA54
:100698000000186370471043186370470038024021
:1006A800044B5A6B19B922EA00005863704710438B
:1006B8005863704700380240044B9A6B19B922EA14
:1006C80000009863704710439863704700380240F1
:1006D800044B1A6C19B922EA0000186470471043D9
:1006E8001864704700380240044B5A6C19B922EA62
:1006F800000058647047104358647047003802403F
:10070800044B1A6919B922EA0000186170471043AE
:100718001861704700380240044B5A6919B922EA37
:100728000000586170471043586170470038024014
:10073800044B9A6919B922EA00009861704710437E
:100748009861704700380240044B1A6A19B922EAC6
:100758000000186270471043186270470038024062
:10076800044B5A6A19B922EA0000586270471043CC
:100778005862704700380240044B1A6D19B922EAD2
:10078800000018657047104318657047003802402C
:10079800044B5A6D19B922EA000058657047104396
:1007A8005865704700380240044B9A6D19B922EA1F
:1007B80000009865704710439865704700380240FC
:1007C800044B1A6E19B922EA0000186670471043E4
:1007D8001866704700380240044B5A6E19B922EA6D
:1007E800000058667047104358667047003802404A
:1007F800044B1A7819B922EA0000187070471043A0
:10080800187070470D3802404309012B0BD0022B9A
:10081800064B0CBF1B6F5B6F00F01F0023FA00F044
:1008280000F001007047014B1B68F5E700380240F3
:10083800024B5A6F42F080725A6770470038024084
:10084800034BDB6818420CBF00200120704700BF33
:1008580000380240014B1870704700BF0E38024044
:1008680008B53C4B984224D03B4B98422BD03B4B8D
:10087800984232D03A4B984239D03A4B984240D0BD
:10088800394B984247D0394B98424ED0384B984212
:1008980055D0384B984200D008BD01214FF48070E4
:1008A800FFF72EFF4FF480700021BDE80840FFF7E6
:1008B80027BF01200146FFF723FF01200021BDE8E3
:1008C8000840FFF71DBF02200121FFF719FF022092
:1008D8000021BDE80840FFF713BF04200121FFF7FE
:1008E8000FFF04200021BDE80840FFF709BF0820DA
:1008F8000121FFF705FF08200021BDE80840FFF7A8
:10090800FFBE10200121FFF7FBFE10200021BDE8EB
:100918000840FFF7F5BE20200121FFF7F1FE202057
:100928000021BDE80840FFF7EBBE40200121FFF79A
:10093800E7FE40200021BDE80840FFF7E1BE802027
:100948000121FFF7DDFE80200021BDE80840FFF708
:10095800D7BE00BF00000240000402400008024069
:10096800000C02400010024000140240001802402F
:10097800001C02400020024000222DE9F007134627
:100988000E6801274FF0030803E001330232102BF1
:100998002BD007FA03F404EA0605A542F5D1D0F8EE
:1009A800009091F804C008FA02F4E44304EA090943
:1009B800C0F80090D0F800900CFA02FA0CF1FF3C55
:1009C8004AEA0909BCF1010FC0F8009010D9C568BE
:1009D80091F807C02C40C460C5680CFA02F40133D2
:1009E8002C430232102BC460D3D1BDE8F007704706
:1009F800D0F808A091F8059091F806C004EA0A0A10
:100A0800C0F808A0D0F808A009FA02F949EA0A09CA
:100A1800C0F80890D0F8049029EA050545604568B3
:100A28000CFA03FC1FFA8CFC4CEA05054560CEE77E
:100A380000234FF6FF720260037143718371C37123
:100A4800704700BF82B04FF480330193019B0B4382
:100A58000193019BC361C161019BC361C369019398
:100A6800C369019302B07047036919420CBF0020A3
:100A780001207047006980B2704700BF436919427E
:100A88000CBF002001207047406980B2704700BF4A
:100A980001837047418370470AB9418370470183D6
:100AA800704700BF416170474369594041617047D1
:100AB800CB08083301F0070130B4890050F82350FF
:100AC8000F2404FA01F425EA040440F8234050F8FE
:100AD800234002FA01F2144340F8234030BC704727
:100AE80070B540F6504640F65045C0F60006C0F6D0
:100AF8000005761BB61007D0043D002455F8043FC6
:100B080001349847A642F9D140F6544640F650457C
:100B1800C0F60006C0F60005761B00F089F8B6108E
:100B280008D0043D002455F8043F01349847A642F4
:100B3800F9D170BD70BD00BF08B508200121FFF7CD
:100B4800A3FD214B21484FF470441C60012400226E
:100B58001C71194603249A715C71DA71FFF70CFF56
:100B68001A484FF48051FFF793FF194B1A46013B7F
:100B7800002AFBD115484FF40051FFF789FF144BA9
:100B88001A46013B002AFBD110484FF48041FFF779
:100B98007FFF0F4B1A46013B002AFBD10B484FF44D
:100BA8000041FFF775FF0B4B1A46013B002AFBD1AA
:100BB80006484FF47041FFF76DFF6FF07F431A4608
:100BC800013B002AFBD1CBE748000020000C024083
:100BD800FFFF3F00FFFF7F00002100F004B80D4B2E
:100BE8005B58435004310C480C4B42189A42FFF4AE
:100BF800F6AF0B4A00F003B8002342F8043B094B58
:100C08009A42FFF4F9AFFFF73BFBFFF769FFFFF7E5
:100C180093FF7047580C00080000002028000020AF
:100C28002C00002050000020FFF7FEBF000000004D
:100C3800F8B500BFF8BC08BC9E467047F8B500BFC1
:080C4800F8BC08BC9E46704791
:040C50001102000885
:040C5400E1010008B2
:100C58000000000000000000000000000102030482
:100C680006070809007A030A0000000001020304CD
:080C780001020304060708094C
:040C80000000000070
:0400000508000BE103
:00000001FF
